{
  "_format": "hh-sol-artifact-1",
  "contractName": "FeedbackToken",
  "sourceName": "contracts/FeedbackToken.sol",
  "abi": [
    {
      "inputs": [],
      "stateMutability": "nonpayable",
      "type": "constructor"
    },
    {
      "inputs": [],
      "name": "AccessControlBadConfirmation",
      "type": "error"
    },
    {
      "inputs": [
        {
          "internalType": "address",
          "name": "account",
          "type": "address"
        },
        {
          "internalType": "bytes32",
          "name": "neededRole",
          "type": "bytes32"
        }
      ],
      "name": "AccessControlUnauthorizedAccount",
      "type": "error"
    },
    {
      "inputs": [
        {
          "internalType": "address",
          "name": "spender",
          "type": "address"
        },
        {
          "internalType": "uint256",
          "name": "allowance",
          "type": "uint256"
        },
        {
          "internalType": "uint256",
          "name": "needed",
          "type": "uint256"
        }
      ],
      "name": "ERC20InsufficientAllowance",
      "type": "error"
    },
    {
      "inputs": [
        {
          "internalType": "address",
          "name": "sender",
          "type": "address"
        },
        {
          "internalType": "uint256",
          "name": "balance",
          "type": "uint256"
        },
        {
          "internalType": "uint256",
          "name": "needed",
          "type": "uint256"
        }
      ],
      "name": "ERC20InsufficientBalance",
      "type": "error"
    },
    {
      "inputs": [
        {
          "internalType": "address",
          "name": "approver",
          "type": "address"
        }
      ],
      "name": "ERC20InvalidApprover",
      "type": "error"
    },
    {
      "inputs": [
        {
          "internalType": "address",
          "name": "receiver",
          "type": "address"
        }
      ],
      "name": "ERC20InvalidReceiver",
      "type": "error"
    },
    {
      "inputs": [
        {
          "internalType": "address",
          "name": "sender",
          "type": "address"
        }
      ],
      "name": "ERC20InvalidSender",
      "type": "error"
    },
    {
      "inputs": [
        {
          "internalType": "address",
          "name": "spender",
          "type": "address"
        }
      ],
      "name": "ERC20InvalidSpender",
      "type": "error"
    },
    {
      "anonymous": false,
      "inputs": [
        {
          "indexed": true,
          "internalType": "address",
          "name": "owner",
          "type": "address"
        },
        {
          "indexed": true,
          "internalType": "address",
          "name": "spender",
          "type": "address"
        },
        {
          "indexed": false,
          "internalType": "uint256",
          "name": "value",
          "type": "uint256"
        }
      ],
      "name": "Approval",
      "type": "event"
    },
    {
      "anonymous": false,
      "inputs": [
        {
          "indexed": false,
          "internalType": "address[]",
          "name": "recipients",
          "type": "address[]"
        },
        {
          "indexed": false,
          "internalType": "uint256[]",
          "name": "amounts",
          "type": "uint256[]"
        }
      ],
      "name": "BatchMinted",
      "type": "event"
    },
    {
      "anonymous": false,
      "inputs": [
        {
          "indexed": true,
          "internalType": "bytes32",
          "name": "role",
          "type": "bytes32"
        },
        {
          "indexed": true,
          "internalType": "bytes32",
          "name": "previousAdminRole",
          "type": "bytes32"
        },
        {
          "indexed": true,
          "internalType": "bytes32",
          "name": "newAdminRole",
          "type": "bytes32"
        }
      ],
      "name": "RoleAdminChanged",
      "type": "event"
    },
    {
      "anonymous": false,
      "inputs": [
        {
          "indexed": true,
          "internalType": "bytes32",
          "name": "role",
          "type": "bytes32"
        },
        {
          "indexed": true,
          "internalType": "address",
          "name": "account",
          "type": "address"
        },
        {
          "indexed": true,
          "internalType": "address",
          "name": "sender",
          "type": "address"
        }
      ],
      "name": "RoleGranted",
      "type": "event"
    },
    {
      "anonymous": false,
      "inputs": [
        {
          "indexed": true,
          "internalType": "bytes32",
          "name": "role",
          "type": "bytes32"
        },
        {
          "indexed": true,
          "internalType": "address",
          "name": "account",
          "type": "address"
        },
        {
          "indexed": true,
          "internalType": "address",
          "name": "sender",
          "type": "address"
        }
      ],
      "name": "RoleRevoked",
      "type": "event"
    },
    {
      "anonymous": false,
      "inputs": [
        {
          "indexed": true,
          "internalType": "address",
          "name": "from",
          "type": "address"
        },
        {
          "indexed": true,
          "internalType": "address",
          "name": "to",
          "type": "address"
        },
        {
          "indexed": false,
          "internalType": "uint256",
          "name": "value",
          "type": "uint256"
        }
      ],
      "name": "Transfer",
      "type": "event"
    },
    {
      "inputs": [],
      "name": "DEFAULT_ADMIN_ROLE",
      "outputs": [
        {
          "internalType": "bytes32",
          "name": "",
          "type": "bytes32"
        }
      ],
      "stateMutability": "view",
      "type": "function"
    },
    {
      "inputs": [],
      "name": "MAX_BATCH_SIZE",
      "outputs": [
        {
          "internalType": "uint256",
          "name": "",
          "type": "uint256"
        }
      ],
      "stateMutability": "view",
      "type": "function"
    },
    {
      "inputs": [],
      "name": "MINTER_ROLE",
      "outputs": [
        {
          "internalType": "bytes32",
          "name": "",
          "type": "bytes32"
        }
      ],
      "stateMutability": "view",
      "type": "function"
    },
    {
      "inputs": [],
      "name": "MIN_WITHDRAWAL",
      "outputs": [
        {
          "internalType": "uint256",
          "name": "",
          "type": "uint256"
        }
      ],
      "stateMutability": "view",
      "type": "function"
    },
    {
      "inputs": [
        {
          "internalType": "address",
          "name": "owner",
          "type": "address"
        },
        {
          "internalType": "address",
          "name": "spender",
          "type": "address"
        }
      ],
      "name": "allowance",
      "outputs": [
        {
          "internalType": "uint256",
          "name": "",
          "type": "uint256"
        }
      ],
      "stateMutability": "view",
      "type": "function"
    },
    {
      "inputs": [
        {
          "internalType": "address",
          "name": "spender",
          "type": "address"
        },
        {
          "internalType": "uint256",
          "name": "value",
          "type": "uint256"
        }
      ],
      "name": "approve",
      "outputs": [
        {
          "internalType": "bool",
          "name": "",
          "type": "bool"
        }
      ],
      "stateMutability": "nonpayable",
      "type": "function"
    },
    {
      "inputs": [
        {
          "internalType": "address",
          "name": "account",
          "type": "address"
        }
      ],
      "name": "balanceOf",
      "outputs": [
        {
          "internalType": "uint256",
          "name": "",
          "type": "uint256"
        }
      ],
      "stateMutability": "view",
      "type": "function"
    },
    {
      "inputs": [
        {
          "internalType": "address[]",
          "name": "recipients",
          "type": "address[]"
        },
        {
          "internalType": "uint256[]",
          "name": "amounts",
          "type": "uint256[]"
        }
      ],
      "name": "batchMint",
      "outputs": [],
      "stateMutability": "nonpayable",
      "type": "function"
    },
    {
      "inputs": [],
      "name": "decimals",
      "outputs": [
        {
          "internalType": "uint8",
          "name": "",
          "type": "uint8"
        }
      ],
      "stateMutability": "view",
      "type": "function"
    },
    {
      "inputs": [
        {
          "internalType": "bytes32",
          "name": "role",
          "type": "bytes32"
        }
      ],
      "name": "getRoleAdmin",
      "outputs": [
        {
          "internalType": "bytes32",
          "name": "",
          "type": "bytes32"
        }
      ],
      "stateMutability": "view",
      "type": "function"
    },
    {
      "inputs": [
        {
          "internalType": "address",
          "name": "account",
          "type": "address"
        }
      ],
      "name": "grantMinterRole",
      "outputs": [],
      "stateMutability": "nonpayable",
      "type": "function"
    },
    {
      "inputs": [
        {
          "internalType": "bytes32",
          "name": "role",
          "type": "bytes32"
        },
        {
          "internalType": "address",
          "name": "account",
          "type": "address"
        }
      ],
      "name": "grantRole",
      "outputs": [],
      "stateMutability": "nonpayable",
      "type": "function"
    },
    {
      "inputs": [
        {
          "internalType": "bytes32",
          "name": "role",
          "type": "bytes32"
        },
        {
          "internalType": "address",
          "name": "account",
          "type": "address"
        }
      ],
      "name": "hasRole",
      "outputs": [
        {
          "internalType": "bool",
          "name": "",
          "type": "bool"
        }
      ],
      "stateMutability": "view",
      "type": "function"
    },
    {
      "inputs": [],
      "name": "name",
      "outputs": [
        {
          "internalType": "string",
          "name": "",
          "type": "string"
        }
      ],
      "stateMutability": "view",
      "type": "function"
    },
    {
      "inputs": [
        {
          "internalType": "bytes32",
          "name": "role",
          "type": "bytes32"
        },
        {
          "internalType": "address",
          "name": "callerConfirmation",
          "type": "address"
        }
      ],
      "name": "renounceRole",
      "outputs": [],
      "stateMutability": "nonpayable",
      "type": "function"
    },
    {
      "inputs": [
        {
          "internalType": "bytes32",
          "name": "role",
          "type": "bytes32"
        },
        {
          "internalType": "address",
          "name": "account",
          "type": "address"
        }
      ],
      "name": "revokeRole",
      "outputs": [],
      "stateMutability": "nonpayable",
      "type": "function"
    },
    {
      "inputs": [
        {
          "internalType": "bytes4",
          "name": "interfaceId",
          "type": "bytes4"
        }
      ],
      "name": "supportsInterface",
      "outputs": [
        {
          "internalType": "bool",
          "name": "",
          "type": "bool"
        }
      ],
      "stateMutability": "view",
      "type": "function"
    },
    {
      "inputs": [],
      "name": "symbol",
      "outputs": [
        {
          "internalType": "string",
          "name": "",
          "type": "string"
        }
      ],
      "stateMutability": "view",
      "type": "function"
    },
    {
      "inputs": [],
      "name": "totalSupply",
      "outputs": [
        {
          "internalType": "uint256",
          "name": "",
          "type": "uint256"
        }
      ],
      "stateMutability": "view",
      "type": "function"
    },
    {
      "inputs": [
        {
          "internalType": "address",
          "name": "to",
          "type": "address"
        },
        {
          "internalType": "uint256",
          "name": "value",
          "type": "uint256"
        }
      ],
      "name": "transfer",
      "outputs": [
        {
          "internalType": "bool",
          "name": "",
          "type": "bool"
        }
      ],
      "stateMutability": "nonpayable",
      "type": "function"
    },
    {
      "inputs": [
        {
          "internalType": "address",
          "name": "from",
          "type": "address"
        },
        {
          "internalType": "address",
          "name": "to",
          "type": "address"
        },
        {
          "internalType": "uint256",
          "name": "value",
          "type": "uint256"
        }
      ],
      "name": "transferFrom",
      "outputs": [
        {
          "internalType": "bool",
          "name": "",
          "type": "bool"
        }
      ],
      "stateMutability": "nonpayable",
      "type": "function"
    }
  ],
  "bytecode": "0x608060405234801561001057600080fd5b506040518060400160405280600d81526020016c2332b2b23130b1b5aa37b5b2b760991b815250604051806040016040528060048152602001634642544b60e01b81525081600390816100639190610200565b5060046100708282610200565b50610080915060009050336100b1565b506100ab7f9f2df0fed2c77648de5860a4cc508cd0818c85b8b8a1ab4ceeef8d981c8956a6336100b1565b506102be565b60008281526005602090815260408083206001600160a01b038516845290915281205460ff166101575760008381526005602090815260408083206001600160a01b03861684529091529020805460ff1916600117905561010f3390565b6001600160a01b0316826001600160a01b0316847f2f8788117e7eff1d82e926ec794901d17c78024a50270940304540a733656f0d60405160405180910390a450600161015b565b5060005b92915050565b634e487b7160e01b600052604160045260246000fd5b600181811c9082168061018b57607f821691505b6020821081036101ab57634e487b7160e01b600052602260045260246000fd5b50919050565b601f8211156101fb57806000526020600020601f840160051c810160208510156101d85750805b601f840160051c820191505b818110156101f857600081556001016101e4565b50505b505050565b81516001600160401b0381111561021957610219610161565b61022d816102278454610177565b846101b1565b6020601f82116001811461026157600083156102495750848201515b600019600385901b1c1916600184901b1784556101f8565b600084815260208120601f198516915b828110156102915787850151825560209485019460019092019101610271565b50848210156102af5786840151600019600387901b60f8161c191681555b50505050600190811b01905550565b610e47806102cd6000396000f3fe608060405234801561001057600080fd5b50600436106101375760003560e01c806368573107116100b8578063a9059cbb1161007c578063a9059cbb1461027d578063cfdbf25414610290578063d15ca16614610298578063d5391393146102a8578063d547741f146102cf578063dd62ed3e146102e257600080fd5b8063685731071461021e57806370a082311461023157806391d148541461025a57806395d89b411461026d578063a217fddf1461027557600080fd5b8063248a9ca3116100ff578063248a9ca3146101b15780632f2ff15d146101d4578063313ce567146101e957806336568abe146101f85780633dd1eb611461020b57600080fd5b806301ffc9a71461013c57806306fdde0314610164578063095ea7b31461017957806318160ddd1461018c57806323b872dd1461019e575b600080fd5b61014f61014a366004610adb565b61031b565b60405190151581526020015b60405180910390f35b61016c610352565b60405161015b9190610b0c565b61014f610187366004610b76565b6103e4565b6002545b60405190815260200161015b565b61014f6101ac366004610ba0565b6103fc565b6101906101bf366004610bdd565b60009081526005602052604090206001015490565b6101e76101e2366004610bf6565b610420565b005b6040516012815260200161015b565b6101e7610206366004610bf6565b61044b565b6101e7610219366004610c22565b610483565b6101e761022c366004610c89565b6104bc565b61019061023f366004610c22565b6001600160a01b031660009081526020819052604090205490565b61014f610268366004610bf6565b61060d565b61016c610638565b610190600081565b61014f61028b366004610b76565b610647565b610190606481565b6101906802b5e3af16b188000081565b6101907f9f2df0fed2c77648de5860a4cc508cd0818c85b8b8a1ab4ceeef8d981c8956a681565b6101e76102dd366004610bf6565b610655565b6101906102f0366004610cfa565b6001600160a01b03918216600090815260016020908152604080832093909416825291909152205490565b60006001600160e01b03198216637965db0b60e01b148061034c57506301ffc9a760e01b6001600160e01b03198316145b92915050565b60606003805461036190610d24565b80601f016020809104026020016040519081016040528092919081815260200182805461038d90610d24565b80156103da5780601f106103af576101008083540402835291602001916103da565b820191906000526020600020905b8154815290600101906020018083116103bd57829003601f168201915b5050505050905090565b6000336103f281858561067a565b5060019392505050565b60003361040a858285610687565b610415858585610700565b506001949350505050565b60008281526005602052604090206001015461043b8161075f565b610445838361076c565b50505050565b6001600160a01b03811633146104745760405163334bd91960e11b815260040160405180910390fd5b61047e8282610800565b505050565b600061048e8161075f565b6104b87f9f2df0fed2c77648de5860a4cc508cd0818c85b8b8a1ab4ceeef8d981c8956a683610420565b5050565b7f9f2df0fed2c77648de5860a4cc508cd0818c85b8b8a1ab4ceeef8d981c8956a66104e68161075f565b83821461052a5760405162461bcd60e51b815260206004820152600d60248201526c125b9d985b1a59081a5b9c1d5d609a1b60448201526064015b60405180910390fd5b606484111561056d5760405162461bcd60e51b815260206004820152600f60248201526e426174636820746f6f206c6172676560881b6044820152606401610521565b60005b848110156105c8576105c086868381811061058d5761058d610d5e565b90506020020160208101906105a29190610c22565b8585848181106105b4576105b4610d5e565b9050602002013561086d565b600101610570565b507f46c094f2f2404297a48a7c4d47697ed07cd7dcb542f35259c65ace5c1f68e1db858585856040516105fe9493929190610d74565b60405180910390a15050505050565b60009182526005602090815260408084206001600160a01b0393909316845291905290205460ff1690565b60606004805461036190610d24565b6000336103f2818585610700565b6000828152600560205260409020600101546106708161075f565b6104458383610800565b61047e83838360016108a3565b6001600160a01b0383811660009081526001602090815260408083209386168352929052205460001981101561044557818110156106f157604051637dc7a0d960e11b81526001600160a01b03841660048201526024810182905260448101839052606401610521565b610445848484840360006108a3565b6001600160a01b03831661072a57604051634b637e8f60e11b815260006004820152602401610521565b6001600160a01b0382166107545760405163ec442f0560e01b815260006004820152602401610521565b61047e838383610978565b6107698133610aa2565b50565b6000610778838361060d565b6107f85760008381526005602090815260408083206001600160a01b03861684529091529020805460ff191660011790556107b03390565b6001600160a01b0316826001600160a01b0316847f2f8788117e7eff1d82e926ec794901d17c78024a50270940304540a733656f0d60405160405180910390a450600161034c565b50600061034c565b600061080c838361060d565b156107f85760008381526005602090815260408083206001600160a01b0386168085529252808320805460ff1916905551339286917ff6391f5c32d9c69d2a47ea670b442974b53935d1edc7fd64eb21e047a839171b9190a450600161034c565b6001600160a01b0382166108975760405163ec442f0560e01b815260006004820152602401610521565b6104b860008383610978565b6001600160a01b0384166108cd5760405163e602df0560e01b815260006004820152602401610521565b6001600160a01b0383166108f757604051634a1406b160e11b815260006004820152602401610521565b6001600160a01b038085166000908152600160209081526040808320938716835292905220829055801561044557826001600160a01b0316846001600160a01b03167f8c5be1e5ebec7d5bd14f71427d1e84f3dd0314c0f7b2291e5b200ac8c7c3b9258460405161096a91815260200190565b60405180910390a350505050565b6001600160a01b0383166109a35780600260008282546109989190610df0565b90915550610a159050565b6001600160a01b038316600090815260208190526040902054818110156109f65760405163391434e360e21b81526001600160a01b03851660048201526024810182905260448101839052606401610521565b6001600160a01b03841660009081526020819052604090209082900390555b6001600160a01b038216610a3157600280548290039055610a50565b6001600160a01b03821660009081526020819052604090208054820190555b816001600160a01b0316836001600160a01b03167fddf252ad1be2c89b69c2b068fc378daa952ba7f163c4a11628f55a4df523b3ef83604051610a9591815260200190565b60405180910390a3505050565b610aac828261060d565b6104b85760405163e2517d3f60e01b81526001600160a01b038216600482015260248101839052604401610521565b600060208284031215610aed57600080fd5b81356001600160e01b031981168114610b0557600080fd5b9392505050565b602081526000825180602084015260005b81811015610b3a5760208186018101516040868401015201610b1d565b506000604082850101526040601f19601f83011684010191505092915050565b80356001600160a01b0381168114610b7157600080fd5b919050565b60008060408385031215610b8957600080fd5b610b9283610b5a565b946020939093013593505050565b600080600060608486031215610bb557600080fd5b610bbe84610b5a565b9250610bcc60208501610b5a565b929592945050506040919091013590565b600060208284031215610bef57600080fd5b5035919050565b60008060408385031215610c0957600080fd5b82359150610c1960208401610b5a565b90509250929050565b600060208284031215610c3457600080fd5b610b0582610b5a565b60008083601f840112610c4f57600080fd5b50813567ffffffffffffffff811115610c6757600080fd5b6020830191508360208260051b8501011115610c8257600080fd5b9250929050565b60008060008060408587031215610c9f57600080fd5b843567ffffffffffffffff811115610cb657600080fd5b610cc287828801610c3d565b909550935050602085013567ffffffffffffffff811115610ce257600080fd5b610cee87828801610c3d565b95989497509550505050565b60008060408385031215610d0d57600080fd5b610d1683610b5a565b9150610c1960208401610b5a565b600181811c90821680610d3857607f821691505b602082108103610d5857634e487b7160e01b600052602260045260246000fd5b50919050565b634e487b7160e01b600052603260045260246000fd5b6040808252810184905260008560608301825b87811015610db5576001600160a01b03610da084610b5a565b16825260209283019290910190600101610d87565b5083810360208501528481526001600160fb1b03851115610dd557600080fd5b8460051b915081866020830137016020019695505050505050565b8082018082111561034c57634e487b7160e01b600052601160045260246000fdfea264697066735822122010c0a661ce08cc48e2857ecfadfa1615903d8360351dbc816294d6fbbeba0d7464736f6c634300081c0033",
  "linkReferences": {},
  "deployedLinkReferences": {}
}